{
  "_format": "hh-sol-artifact-1",
  "contractName": "Bank",
  "sourceName": "contracts/Bank.sol",
  "abi": [
    {
      "inputs": [],
      "stateMutability": "payable",
      "type": "constructor"
    },
    {
      "inputs": [
        {
          "internalType": "address",
          "name": "",
          "type": "address"
        }
      ],
      "name": "accountBankBalance",
      "outputs": [
        {
          "internalType": "uint256",
          "name": "",
          "type": "uint256"
        }
      ],
      "stateMutability": "view",
      "type": "function"
    },
    {
      "inputs": [
        {
          "internalType": "address",
          "name": "customerAddress",
          "type": "address"
        }
      ],
      "name": "customerBalance",
      "outputs": [
        {
          "internalType": "uint256",
          "name": "",
          "type": "uint256"
        }
      ],
      "stateMutability": "view",
      "type": "function"
    },
    {
      "inputs": [],
      "name": "deposit",
      "outputs": [],
      "stateMutability": "payable",
      "type": "function"
    },
    {
      "inputs": [
        {
          "internalType": "address",
          "name": "depositToAccount",
          "type": "address"
        },
        {
          "internalType": "string",
          "name": "_message",
          "type": "string"
        }
      ],
      "name": "depositTo",
      "outputs": [],
      "stateMutability": "payable",
      "type": "function"
    },
    {
      "inputs": [],
      "name": "getAllTransfers",
      "outputs": [
        {
          "components": [
            {
              "internalType": "address",
              "name": "depositingAccount",
              "type": "address"
            },
            {
              "internalType": "address",
              "name": "depositorAccount",
              "type": "address"
            },
            {
              "internalType": "string",
              "name": "depositMessage",
              "type": "string"
            },
            {
              "internalType": "uint256",
              "name": "depositAmount",
              "type": "uint256"
            },
            {
              "internalType": "uint256",
              "name": "timestamp",
              "type": "uint256"
            }
          ],
          "internalType": "struct Bank.accountTransfers[]",
          "name": "",
          "type": "tuple[]"
        }
      ],
      "stateMutability": "view",
      "type": "function"
    },
    {
      "inputs": [
        {
          "internalType": "uint256",
          "name": "withdrawAmount",
          "type": "uint256"
        }
      ],
      "name": "withdraw",
      "outputs": [],
      "stateMutability": "nonpayable",
      "type": "function"
    }
  ],
  "bytecode": "0x60806040526200004f6040518060400160405280601481526020017f436f6e747261637420496e697469616c697365640000000000000000000000008152506200005560201b620008131760201c565b620001e9565b620000f5816040516024016200006c919062000162565b6040516020818303038152906040527f41304fac000000000000000000000000000000000000000000000000000000007bffffffffffffffffffffffffffffffffffffffffffffffffffffffff19166020820180517bffffffffffffffffffffffffffffffffffffffffffffffffffffffff8381831617835250505050620000f860201b60201c565b50565b60008151905060006a636f6e736f6c652e6c6f679050602083016000808483855afa5050505050565b60006200012e8262000186565b6200013a818562000191565b93506200014c818560208601620001a2565b6200015781620001d8565b840191505092915050565b600060208201905081810360008301526200017e818462000121565b905092915050565b600081519050919050565b600082825260208201905092915050565b60005b83811015620001c2578082015181840152602081019050620001a5565b83811115620001d2576000848401525b50505050565b6000601f19601f8301169050919050565b61127380620001f96000396000f3fe6080604052600436106100555760003560e01c80632e1a7d4d1461005a57806337ebe47b1461008357806354b4aa4a146100c0578063ab6bb9e8146100eb578063b7315e3214610128578063d0e30db014610144575b600080fd5b34801561006657600080fd5b50610081600480360381019061007c9190610bc2565b61014e565b005b34801561008f57600080fd5b506100aa60048036038101906100a59190610b45565b61025b565b6040516100b79190610e7e565b60405180910390f35b3480156100cc57600080fd5b506100d56102a3565b6040516100e29190610dac565b60405180910390f35b3480156100f757600080fd5b50610112600480360381019061010d9190610b45565b610454565b60405161011f9190610e7e565b60405180910390f35b610142600480360381019061013d9190610b6e565b61046c565b005b61014c610626565b005b806101583361025b565b1015610199576040517f08c379a000000000000000000000000000000000000000000000000000000000815260040161019090610e5e565b60405180910390fd5b806000803373ffffffffffffffffffffffffffffffffffffffff1673ffffffffffffffffffffffffffffffffffffffff16815260200190815260200160002060008282546101e79190610fab565b925050819055503373ffffffffffffffffffffffffffffffffffffffff166108fc829081150290604051600060405180830381858888f19350505050158015610234573d6000803e3d6000fd5b506102586040518060600160405280603a8152602001611204603a913982476108ac565b50565b60008060008373ffffffffffffffffffffffffffffffffffffffff1673ffffffffffffffffffffffffffffffffffffffff168152602001908152602001600020549050919050565b60606001805480602002602001604051908101604052809291908181526020016000905b8282101561044b57838290600052602060002090600502016040518060a00160405290816000820160009054906101000a900473ffffffffffffffffffffffffffffffffffffffff1673ffffffffffffffffffffffffffffffffffffffff1673ffffffffffffffffffffffffffffffffffffffff1681526020016001820160009054906101000a900473ffffffffffffffffffffffffffffffffffffffff1673ffffffffffffffffffffffffffffffffffffffff1673ffffffffffffffffffffffffffffffffffffffff1681526020016002820180546103a69061105d565b80601f01602080910402602001604051908101604052809291908181526020018280546103d29061105d565b801561041f5780601f106103f45761010080835404028352916020019161041f565b820191906000526020600020905b81548152906001019060200180831161040257829003601f168201915b5050505050815260200160038201548152602001600482015481525050815260200190600101906102c7565b50505050905090565b60006020528060005260406000206000915090505481565b60016040518060a001604052803373ffffffffffffffffffffffffffffffffffffffff1681526020018473ffffffffffffffffffffffffffffffffffffffff16815260200183815260200134815260200142815250908060018154018082558091505060019003906000526020600020906005020160009091909190915060008201518160000160006101000a81548173ffffffffffffffffffffffffffffffffffffffff021916908373ffffffffffffffffffffffffffffffffffffffff16021790555060208201518160010160006101000a81548173ffffffffffffffffffffffffffffffffffffffff021916908373ffffffffffffffffffffffffffffffffffffffff1602179055506040820151816002019080519060200190610594929190610a10565b5060608201518160030155608082015181600401555050346000808473ffffffffffffffffffffffffffffffffffffffff1673ffffffffffffffffffffffffffffffffffffffff16815260200190815260200160002060008282546105f99190610f55565b925050819055506106226040518060600160405280602881526020016111dc602891394761094b565b5050565b346000803373ffffffffffffffffffffffffffffffffffffffff1673ffffffffffffffffffffffffffffffffffffffff16815260200190815260200160002060008282546106749190610f55565b9250508190555060016040518060a001604052803373ffffffffffffffffffffffffffffffffffffffff1681526020013373ffffffffffffffffffffffffffffffffffffffff1681526020016040518060400160405280600c81526020017f53454c462d4445504f5349540000000000000000000000000000000000000000815250815260200134815260200142815250908060018154018082558091505060019003906000526020600020906005020160009091909190915060008201518160000160006101000a81548173ffffffffffffffffffffffffffffffffffffffff021916908373ffffffffffffffffffffffffffffffffffffffff16021790555060208201518160010160006101000a81548173ffffffffffffffffffffffffffffffffffffffff021916908373ffffffffffffffffffffffffffffffffffffffff16021790555060408201518160020190805190602001906107d8929190610a10565b50606082015181600301556080820151816004015550506108116040518060600160405280602881526020016111dc602891394761094b565b565b6108a9816040516024016108279190610dce565b6040516020818303038152906040527f41304fac000000000000000000000000000000000000000000000000000000007bffffffffffffffffffffffffffffffffffffffffffffffffffffffff19166020820180517bffffffffffffffffffffffffffffffffffffffffffffffffffffffff83818316178352505050506109e7565b50565b6109468383836040516024016108c493929190610e20565b6040516020818303038152906040527f969cdd03000000000000000000000000000000000000000000000000000000007bffffffffffffffffffffffffffffffffffffffffffffffffffffffff19166020820180517bffffffffffffffffffffffffffffffffffffffffffffffffffffffff83818316178352505050506109e7565b505050565b6109e38282604051602401610961929190610df0565b6040516020818303038152906040527f9710a9d0000000000000000000000000000000000000000000000000000000007bffffffffffffffffffffffffffffffffffffffffffffffffffffffff19166020820180517bffffffffffffffffffffffffffffffffffffffffffffffffffffffff83818316178352505050506109e7565b5050565b60008151905060006a636f6e736f6c652e6c6f679050602083016000808483855afa5050505050565b828054610a1c9061105d565b90600052602060002090601f016020900481019282610a3e5760008555610a85565b82601f10610a5757805160ff1916838001178555610a85565b82800160010185558215610a85579182015b82811115610a84578251825591602001919060010190610a69565b5b509050610a929190610a96565b5090565b5b80821115610aaf576000816000905550600101610a97565b5090565b6000610ac6610ac184610ebe565b610e99565b905082815260208101848484011115610ade57600080fd5b610ae984828561101b565b509392505050565b600081359050610b00816111ad565b92915050565b600082601f830112610b1757600080fd5b8135610b27848260208601610ab3565b91505092915050565b600081359050610b3f816111c4565b92915050565b600060208284031215610b5757600080fd5b6000610b6584828501610af1565b91505092915050565b60008060408385031215610b8157600080fd5b6000610b8f85828601610af1565b925050602083013567ffffffffffffffff811115610bac57600080fd5b610bb885828601610b06565b9150509250929050565b600060208284031215610bd457600080fd5b6000610be284828501610b30565b91505092915050565b6000610bf78383610d18565b905092915050565b610c0881610fdf565b82525050565b6000610c1982610eff565b610c238185610f22565b935083602082028501610c3585610eef565b8060005b85811015610c715784840389528151610c528582610beb565b9450610c5d83610f15565b925060208a01995050600181019050610c39565b50829750879550505050505092915050565b6000610c8e82610f0a565b610c988185610f33565b9350610ca881856020860161102a565b610cb18161114d565b840191505092915050565b6000610cc782610f0a565b610cd18185610f44565b9350610ce181856020860161102a565b610cea8161114d565b840191505092915050565b6000610d02603683610f44565b9150610d0d8261115e565b604082019050919050565b600060a083016000830151610d306000860182610bff565b506020830151610d436020860182610bff565b5060408301518482036040860152610d5b8282610c83565b9150506060830151610d706060860182610d8e565b506080830151610d836080860182610d8e565b508091505092915050565b610d9781611011565b82525050565b610da681611011565b82525050565b60006020820190508181036000830152610dc68184610c0e565b905092915050565b60006020820190508181036000830152610de88184610cbc565b905092915050565b60006040820190508181036000830152610e0a8185610cbc565b9050610e196020830184610d9d565b9392505050565b60006060820190508181036000830152610e3a8186610cbc565b9050610e496020830185610d9d565b610e566040830184610d9d565b949350505050565b60006020820190508181036000830152610e7781610cf5565b9050919050565b6000602082019050610e936000830184610d9d565b92915050565b6000610ea3610eb4565b9050610eaf828261108f565b919050565b6000604051905090565b600067ffffffffffffffff821115610ed957610ed861111e565b5b610ee28261114d565b9050602081019050919050565b6000819050602082019050919050565b600081519050919050565b600081519050919050565b6000602082019050919050565b600082825260208201905092915050565b600082825260208201905092915050565b600082825260208201905092915050565b6000610f6082611011565b9150610f6b83611011565b9250827fffffffffffffffffffffffffffffffffffffffffffffffffffffffffffffffff03821115610fa057610f9f6110c0565b5b828201905092915050565b6000610fb682611011565b9150610fc183611011565b925082821015610fd457610fd36110c0565b5b828203905092915050565b6000610fea82610ff1565b9050919050565b600073ffffffffffffffffffffffffffffffffffffffff82169050919050565b6000819050919050565b82818337600083830152505050565b60005b8381101561104857808201518184015260208101905061102d565b83811115611057576000848401525b50505050565b6000600282049050600182168061107557607f821691505b60208210811415611089576110886110ef565b5b50919050565b6110988261114d565b810181811067ffffffffffffffff821117156110b7576110b661111e565b5b80604052505050565b7f4e487b7100000000000000000000000000000000000000000000000000000000600052601160045260246000fd5b7f4e487b7100000000000000000000000000000000000000000000000000000000600052602260045260246000fd5b7f4e487b7100000000000000000000000000000000000000000000000000000000600052604160045260246000fd5b6000601f19601f8301169050919050565b7f547279696e6720746f207769746864726177206d6f7265206d6f6e657920746860008201527f616e20796f752068617665206465706f73697465642e00000000000000000000602082015250565b6111b681610fdf565b81146111c157600080fd5b50565b6111cd81611011565b81146111d857600080fd5b5056fe4465706f736974207375636365737366756c2c2063757272656e742062616c616e63653a202564205375636365737366756c6c7920776974686472657720616d6f756e743a2025642c2063757272656e742062616e6b2062616c616e63653a202564a2646970667358221220c91976456d770c4f6eb310fbe139a70e72a835068f517a444e2c7f3ea136937d64736f6c63430008040033",
  "linkReferences": {},
  "deployedLinkReferences": {}
}