{
  "_format": "hh-sol-artifact-1",
  "contractName": "Bank",
  "sourceName": "contracts/Bank.sol",
  "abi": [
    {
      "inputs": [],
      "stateMutability": "payable",
      "type": "constructor"
    },
    {
      "inputs": [
        {
          "internalType": "address",
          "name": "",
          "type": "address"
        }
      ],
      "name": "accountBankBalance",
      "outputs": [
        {
          "internalType": "uint256",
          "name": "",
          "type": "uint256"
        }
      ],
      "stateMutability": "view",
      "type": "function"
    },
    {
      "inputs": [],
      "name": "contractBalance",
      "outputs": [
        {
          "internalType": "uint256",
          "name": "",
          "type": "uint256"
        }
      ],
      "stateMutability": "view",
      "type": "function"
    },
    {
      "inputs": [
        {
          "internalType": "address",
          "name": "customerAddress",
          "type": "address"
        }
      ],
      "name": "customerBalance",
      "outputs": [
        {
          "internalType": "uint256",
          "name": "",
          "type": "uint256"
        }
      ],
      "stateMutability": "view",
      "type": "function"
    },
    {
      "inputs": [],
      "name": "deposit",
      "outputs": [],
      "stateMutability": "payable",
      "type": "function"
    },
    {
      "inputs": [
        {
          "internalType": "address",
          "name": "depositToAccount",
          "type": "address"
        },
        {
          "internalType": "string",
          "name": "_message",
          "type": "string"
        }
      ],
      "name": "depositTo",
      "outputs": [],
      "stateMutability": "payable",
      "type": "function"
    },
    {
      "inputs": [],
      "name": "getAllTransfers",
      "outputs": [
        {
          "components": [
            {
              "internalType": "address",
              "name": "depositingAccount",
              "type": "address"
            },
            {
              "internalType": "address",
              "name": "depositorAccount",
              "type": "address"
            },
            {
              "internalType": "string",
              "name": "depositMessage",
              "type": "string"
            },
            {
              "internalType": "uint256",
              "name": "depositAmount",
              "type": "uint256"
            },
            {
              "internalType": "uint256",
              "name": "timestamp",
              "type": "uint256"
            }
          ],
          "internalType": "struct Bank.accountTransfers[]",
          "name": "",
          "type": "tuple[]"
        }
      ],
      "stateMutability": "view",
      "type": "function"
    },
    {
      "inputs": [
        {
          "internalType": "uint256",
          "name": "withdrawAmount",
          "type": "uint256"
        }
      ],
      "name": "withdraw",
      "outputs": [],
      "stateMutability": "nonpayable",
      "type": "function"
    }
  ],
  "bytecode": "0x60806040526200004f6040518060400160405280601481526020017f436f6e747261637420496e697469616c69736564000000000000000000000000815250620000a160201b620009d51760201c565b6200009b6040518060400160405280601481526020017f436f6e74726163742062616c616e63653a202564000000000000000000000000815250476200014460201b62000a6e1760201c565b6200032a565b6200014181604051602401620000b8919062000265565b6040516020818303038152906040527f41304fac000000000000000000000000000000000000000000000000000000007bffffffffffffffffffffffffffffffffffffffffffffffffffffffff19166020820180517bffffffffffffffffffffffffffffffffffffffffffffffffffffffff8381831617835250505050620001ea60201b60201c565b50565b620001e682826040516024016200015d92919062000289565b6040516020818303038152906040527f9710a9d0000000000000000000000000000000000000000000000000000000007bffffffffffffffffffffffffffffffffffffffffffffffffffffffff19166020820180517bffffffffffffffffffffffffffffffffffffffffffffffffffffffff8381831617835250505050620001ea60201b60201c565b5050565b60008151905060006a636f6e736f6c652e6c6f679050602083016000808483855afa5050505050565b60006200022082620002bd565b6200022c8185620002c8565b93506200023e818560208601620002e3565b620002498162000319565b840191505092915050565b6200025f81620002d9565b82525050565b6000602082019050818103600083015262000281818462000213565b905092915050565b60006040820190508181036000830152620002a5818562000213565b9050620002b6602083018462000254565b9392505050565b600081519050919050565b600082825260208201905092915050565b6000819050919050565b60005b8381101562000303578082015181840152602081019050620002e6565b8381111562000313576000848401525b50505050565b6000601f19601f8301169050919050565b611435806200033a6000396000f3fe6080604052600436106100705760003560e01c80638b7afe2e1161004e5780638b7afe2e14610106578063ab6bb9e814610131578063b7315e321461016e578063d0e30db01461018a57610070565b80632e1a7d4d1461007557806337ebe47b1461009e57806354b4aa4a146100db575b600080fd5b34801561008157600080fd5b5061009c60048036038101906100979190610d84565b610194565b005b3480156100aa57600080fd5b506100c560048036038101906100c09190610d07565b610415565b6040516100d29190611040565b60405180910390f35b3480156100e757600080fd5b506100f061045d565b6040516100fd9190610f6e565b60405180910390f35b34801561011257600080fd5b5061011b61060e565b6040516101289190611040565b60405180910390f35b34801561013d57600080fd5b5061015860048036038101906101539190610d07565b610616565b6040516101659190611040565b60405180910390f35b61018860048036038101906101839190610d30565b61062e565b005b6101926107e8565b005b8061019e33610415565b10156101df576040517f08c379a00000000000000000000000000000000000000000000000000000000081526004016101d690611020565b60405180910390fd5b806000803373ffffffffffffffffffffffffffffffffffffffff1673ffffffffffffffffffffffffffffffffffffffff168152602001908152602001600020600082825461022d919061116d565b925050819055503373ffffffffffffffffffffffffffffffffffffffff166108fc829081150290604051600060405180830381858888f1935050505015801561027a573d6000803e3d6000fd5b5060016040518060a001604052803373ffffffffffffffffffffffffffffffffffffffff1681526020013373ffffffffffffffffffffffffffffffffffffffff1681526020016040518060400160405280600d81526020017f53454c462d574954484452415700000000000000000000000000000000000000815250815260200183815260200142815250908060018154018082558091505060019003906000526020600020906005020160009091909190915060008201518160000160006101000a81548173ffffffffffffffffffffffffffffffffffffffff021916908373ffffffffffffffffffffffffffffffffffffffff16021790555060208201518160010160006101000a81548173ffffffffffffffffffffffffffffffffffffffff021916908373ffffffffffffffffffffffffffffffffffffffff16021790555060408201518160020190805190602001906103d8929190610bd2565b50606082015181600301556080820151816004015550506104126040518060600160405280603a81526020016113c6603a91398247610b0a565b50565b60008060008373ffffffffffffffffffffffffffffffffffffffff1673ffffffffffffffffffffffffffffffffffffffff168152602001908152602001600020549050919050565b60606001805480602002602001604051908101604052809291908181526020016000905b8282101561060557838290600052602060002090600502016040518060a00160405290816000820160009054906101000a900473ffffffffffffffffffffffffffffffffffffffff1673ffffffffffffffffffffffffffffffffffffffff1673ffffffffffffffffffffffffffffffffffffffff1681526020016001820160009054906101000a900473ffffffffffffffffffffffffffffffffffffffff1673ffffffffffffffffffffffffffffffffffffffff1673ffffffffffffffffffffffffffffffffffffffff1681526020016002820180546105609061121f565b80601f016020809104026020016040519081016040528092919081815260200182805461058c9061121f565b80156105d95780601f106105ae576101008083540402835291602001916105d9565b820191906000526020600020905b8154815290600101906020018083116105bc57829003601f168201915b505050505081526020016003820154815260200160048201548152505081526020019060010190610481565b50505050905090565b600047905090565b60006020528060005260406000206000915090505481565b60016040518060a001604052803373ffffffffffffffffffffffffffffffffffffffff1681526020018473ffffffffffffffffffffffffffffffffffffffff16815260200183815260200134815260200142815250908060018154018082558091505060019003906000526020600020906005020160009091909190915060008201518160000160006101000a81548173ffffffffffffffffffffffffffffffffffffffff021916908373ffffffffffffffffffffffffffffffffffffffff16021790555060208201518160010160006101000a81548173ffffffffffffffffffffffffffffffffffffffff021916908373ffffffffffffffffffffffffffffffffffffffff1602179055506040820151816002019080519060200190610756929190610bd2565b5060608201518160030155608082015181600401555050346000808473ffffffffffffffffffffffffffffffffffffffff1673ffffffffffffffffffffffffffffffffffffffff16815260200190815260200160002060008282546107bb9190611117565b925050819055506107e460405180606001604052806028815260200161139e6028913947610a6e565b5050565b346000803373ffffffffffffffffffffffffffffffffffffffff1673ffffffffffffffffffffffffffffffffffffffff16815260200190815260200160002060008282546108369190611117565b9250508190555060016040518060a001604052803373ffffffffffffffffffffffffffffffffffffffff1681526020013373ffffffffffffffffffffffffffffffffffffffff1681526020016040518060400160405280600c81526020017f53454c462d4445504f5349540000000000000000000000000000000000000000815250815260200134815260200142815250908060018154018082558091505060019003906000526020600020906005020160009091909190915060008201518160000160006101000a81548173ffffffffffffffffffffffffffffffffffffffff021916908373ffffffffffffffffffffffffffffffffffffffff16021790555060208201518160010160006101000a81548173ffffffffffffffffffffffffffffffffffffffff021916908373ffffffffffffffffffffffffffffffffffffffff160217905550604082015181600201908051906020019061099a929190610bd2565b50606082015181600301556080820151816004015550506109d360405180606001604052806028815260200161139e6028913947610a6e565b565b610a6b816040516024016109e99190610f90565b6040516020818303038152906040527f41304fac000000000000000000000000000000000000000000000000000000007bffffffffffffffffffffffffffffffffffffffffffffffffffffffff19166020820180517bffffffffffffffffffffffffffffffffffffffffffffffffffffffff8381831617835250505050610ba9565b50565b610b068282604051602401610a84929190610fb2565b6040516020818303038152906040527f9710a9d0000000000000000000000000000000000000000000000000000000007bffffffffffffffffffffffffffffffffffffffffffffffffffffffff19166020820180517bffffffffffffffffffffffffffffffffffffffffffffffffffffffff8381831617835250505050610ba9565b5050565b610ba4838383604051602401610b2293929190610fe2565b6040516020818303038152906040527f969cdd03000000000000000000000000000000000000000000000000000000007bffffffffffffffffffffffffffffffffffffffffffffffffffffffff19166020820180517bffffffffffffffffffffffffffffffffffffffffffffffffffffffff8381831617835250505050610ba9565b505050565b60008151905060006a636f6e736f6c652e6c6f679050602083016000808483855afa5050505050565b828054610bde9061121f565b90600052602060002090601f016020900481019282610c005760008555610c47565b82601f10610c1957805160ff1916838001178555610c47565b82800160010185558215610c47579182015b82811115610c46578251825591602001919060010190610c2b565b5b509050610c549190610c58565b5090565b5b80821115610c71576000816000905550600101610c59565b5090565b6000610c88610c8384611080565b61105b565b905082815260208101848484011115610ca057600080fd5b610cab8482856111dd565b509392505050565b600081359050610cc28161136f565b92915050565b600082601f830112610cd957600080fd5b8135610ce9848260208601610c75565b91505092915050565b600081359050610d0181611386565b92915050565b600060208284031215610d1957600080fd5b6000610d2784828501610cb3565b91505092915050565b60008060408385031215610d4357600080fd5b6000610d5185828601610cb3565b925050602083013567ffffffffffffffff811115610d6e57600080fd5b610d7a85828601610cc8565b9150509250929050565b600060208284031215610d9657600080fd5b6000610da484828501610cf2565b91505092915050565b6000610db98383610eda565b905092915050565b610dca816111a1565b82525050565b6000610ddb826110c1565b610de581856110e4565b935083602082028501610df7856110b1565b8060005b85811015610e335784840389528151610e148582610dad565b9450610e1f836110d7565b925060208a01995050600181019050610dfb565b50829750879550505050505092915050565b6000610e50826110cc565b610e5a81856110f5565b9350610e6a8185602086016111ec565b610e738161130f565b840191505092915050565b6000610e89826110cc565b610e938185611106565b9350610ea38185602086016111ec565b610eac8161130f565b840191505092915050565b6000610ec4603683611106565b9150610ecf82611320565b604082019050919050565b600060a083016000830151610ef26000860182610dc1565b506020830151610f056020860182610dc1565b5060408301518482036040860152610f1d8282610e45565b9150506060830151610f326060860182610f50565b506080830151610f456080860182610f50565b508091505092915050565b610f59816111d3565b82525050565b610f68816111d3565b82525050565b60006020820190508181036000830152610f888184610dd0565b905092915050565b60006020820190508181036000830152610faa8184610e7e565b905092915050565b60006040820190508181036000830152610fcc8185610e7e565b9050610fdb6020830184610f5f565b9392505050565b60006060820190508181036000830152610ffc8186610e7e565b905061100b6020830185610f5f565b6110186040830184610f5f565b949350505050565b6000602082019050818103600083015261103981610eb7565b9050919050565b60006020820190506110556000830184610f5f565b92915050565b6000611065611076565b90506110718282611251565b919050565b6000604051905090565b600067ffffffffffffffff82111561109b5761109a6112e0565b5b6110a48261130f565b9050602081019050919050565b6000819050602082019050919050565b600081519050919050565b600081519050919050565b6000602082019050919050565b600082825260208201905092915050565b600082825260208201905092915050565b600082825260208201905092915050565b6000611122826111d3565b915061112d836111d3565b9250827fffffffffffffffffffffffffffffffffffffffffffffffffffffffffffffffff0382111561116257611161611282565b5b828201905092915050565b6000611178826111d3565b9150611183836111d3565b92508282101561119657611195611282565b5b828203905092915050565b60006111ac826111b3565b9050919050565b600073ffffffffffffffffffffffffffffffffffffffff82169050919050565b6000819050919050565b82818337600083830152505050565b60005b8381101561120a5780820151818401526020810190506111ef565b83811115611219576000848401525b50505050565b6000600282049050600182168061123757607f821691505b6020821081141561124b5761124a6112b1565b5b50919050565b61125a8261130f565b810181811067ffffffffffffffff82111715611279576112786112e0565b5b80604052505050565b7f4e487b7100000000000000000000000000000000000000000000000000000000600052601160045260246000fd5b7f4e487b7100000000000000000000000000000000000000000000000000000000600052602260045260246000fd5b7f4e487b7100000000000000000000000000000000000000000000000000000000600052604160045260246000fd5b6000601f19601f8301169050919050565b7f547279696e6720746f207769746864726177206d6f7265206d6f6e657920746860008201527f616e20796f752068617665206465706f73697465642e00000000000000000000602082015250565b611378816111a1565b811461138357600080fd5b50565b61138f816111d3565b811461139a57600080fd5b5056fe4465706f736974207375636365737366756c2c2063757272656e742062616c616e63653a202564205375636365737366756c6c7920776974686472657720616d6f756e743a2025642c2063757272656e742062616e6b2062616c616e63653a202564a2646970667358221220556d1d1b02940e3cfcc684696cb28fcecf26a6cfbbd5ae4056218de2134f46ed64736f6c63430008040033",
  "linkReferences": {},
  "deployedLinkReferences": {}
}