{
  "_format": "hh-sol-artifact-1",
  "contractName": "Lottery",
  "sourceName": "contracts/Lottery.sol",
  "abi": [
    {
      "inputs": [],
      "stateMutability": "payable",
      "type": "constructor"
    },
    {
      "inputs": [],
      "name": "enter",
      "outputs": [],
      "stateMutability": "payable",
      "type": "function"
    },
    {
      "inputs": [],
      "name": "pickWinner",
      "outputs": [],
      "stateMutability": "nonpayable",
      "type": "function"
    },
    {
      "inputs": [
        {
          "internalType": "uint256",
          "name": "",
          "type": "uint256"
        }
      ],
      "name": "players",
      "outputs": [
        {
          "internalType": "address",
          "name": "",
          "type": "address"
        }
      ],
      "stateMutability": "view",
      "type": "function"
    }
  ],
  "bytecode": "0x60806040526200004f6040518060400160405280601481526020017f436f6e747261637420496e697469616c69736564000000000000000000000000815250620000a160201b6200029d1760201c565b6200009b6040518060400160405280601481526020017f436f6e74726163742062616c616e63653a202564000000000000000000000000815250476200014460201b620003361760201c565b6200032a565b6200014181604051602401620000b8919062000265565b6040516020818303038152906040527f41304fac000000000000000000000000000000000000000000000000000000007bffffffffffffffffffffffffffffffffffffffffffffffffffffffff19166020820180517bffffffffffffffffffffffffffffffffffffffffffffffffffffffff8381831617835250505050620001ea60201b60201c565b50565b620001e682826040516024016200015d92919062000289565b6040516020818303038152906040527f9710a9d0000000000000000000000000000000000000000000000000000000007bffffffffffffffffffffffffffffffffffffffffffffffffffffffff19166020820180517bffffffffffffffffffffffffffffffffffffffffffffffffffffffff8381831617835250505050620001ea60201b60201c565b5050565b60008151905060006a636f6e736f6c652e6c6f679050602083016000808483855afa5050505050565b60006200022082620002bd565b6200022c8185620002c8565b93506200023e818560208601620002e3565b620002498162000319565b840191505092915050565b6200025f81620002d9565b82525050565b6000602082019050818103600083015262000281818462000213565b905092915050565b60006040820190508181036000830152620002a5818562000213565b9050620002b6602083018462000254565b9392505050565b600081519050919050565b600082825260208201905092915050565b6000819050919050565b60005b8381101562000303578082015181840152602081019050620002e6565b8381111562000313576000848401525b50505050565b6000601f19601f8301169050919050565b610875806200033a6000396000f3fe6080604052600436106100345760003560e01c80635d495aea14610039578063e97dcb6214610050578063f71d96cb1461005a575b600080fd5b34801561004557600080fd5b5061004e610097565b005b6100586101e6565b005b34801561006657600080fd5b50610081600480360381019061007c91906104eb565b61025e565b60405161008e91906105f7565b60405180910390f35b600080805490506100a66103d2565b6100b09190610797565b9050600081815481106100ec577f4e487b7100000000000000000000000000000000000000000000000000000000600052603260045260246000fd5b9060005260206000200160009054906101000a900473ffffffffffffffffffffffffffffffffffffffff1673ffffffffffffffffffffffffffffffffffffffff166108fc479081150290604051600060405180830381858888f1935050505015801561015c573d6000803e3d6000fd5b50600067ffffffffffffffff81111561019e577f4e487b7100000000000000000000000000000000000000000000000000000000600052604160045260246000fd5b6040519080825280602002602001820160405280156101cc5781602001602082028036833780820191505090505b50600090805190602001906101e292919061042f565b5050565b662386f26fc1000034116101f957600080fd5b6000339080600181540180825580915050600190039060005260206000200160009091909190916101000a81548173ffffffffffffffffffffffffffffffffffffffff021916908373ffffffffffffffffffffffffffffffffffffffff160217905550565b6000818154811061026e57600080fd5b906000526020600020016000915054906101000a900473ffffffffffffffffffffffffffffffffffffffff1681565b610333816040516024016102b19190610612565b6040516020818303038152906040527f41304fac000000000000000000000000000000000000000000000000000000007bffffffffffffffffffffffffffffffffffffffffffffffffffffffff19166020820180517bffffffffffffffffffffffffffffffffffffffffffffffffffffffff8381831617835250505050610406565b50565b6103ce828260405160240161034c929190610634565b6040516020818303038152906040527f9710a9d0000000000000000000000000000000000000000000000000000000007bffffffffffffffffffffffffffffffffffffffffffffffffffffffff19166020820180517bffffffffffffffffffffffffffffffffffffffffffffffffffffffff8381831617835250505050610406565b5050565b60004260006040516020016103e8929190610664565b6040516020818303038152906040528051906020012060001c905090565b60008151905060006a636f6e736f6c652e6c6f679050602083016000808483855afa5050505050565b8280548282559060005260206000209081019282156104a8579160200282015b828111156104a75782518260006101000a81548173ffffffffffffffffffffffffffffffffffffffff021916908373ffffffffffffffffffffffffffffffffffffffff1602179055509160200191906001019061044f565b5b5090506104b591906104b9565b5090565b5b808211156104d25760008160009055506001016104ba565b5090565b6000813590506104e581610828565b92915050565b6000602082840312156104fd57600080fd5b600061050b848285016104d6565b91505092915050565b6000610520838361052c565b60208301905092915050565b6105358161070e565b82525050565b6105448161070e565b82525050565b6000610555826106a9565b61055f81856106cc565b935061056a83610694565b8060005b838110156105a25761057f826107f7565b6105898882610514565b9750610594836106bf565b92505060018101905061056e565b5085935050505092915050565b60006105ba826106b4565b6105c481856106dd565b93506105d481856020860161074a565b6105dd8161080a565b840191505092915050565b6105f181610740565b82525050565b600060208201905061060c600083018461053b565b92915050565b6000602082019050818103600083015261062c81846105af565b905092915050565b6000604082019050818103600083015261064e81856105af565b905061065d60208301846105e8565b9392505050565b600060408201905061067960008301856105e8565b818103602083015261068b818461054a565b90509392505050565b60008190508160005260206000209050919050565b600081549050919050565b600081519050919050565b6000600182019050919050565b600082825260208201905092915050565b600082825260208201905092915050565b600073ffffffffffffffffffffffffffffffffffffffff82169050919050565b600061071982610720565b9050919050565b600073ffffffffffffffffffffffffffffffffffffffff82169050919050565b6000819050919050565b60005b8381101561076857808201518184015260208101905061074d565b83811115610777576000848401525b50505050565b600061079061078b8361081b565b6106ee565b9050919050565b60006107a282610740565b91506107ad83610740565b9250826107bd576107bc6107c8565b5b828206905092915050565b7f4e487b7100000000000000000000000000000000000000000000000000000000600052601260045260246000fd5b6000610803825461077d565b9050919050565b6000601f19601f8301169050919050565b60008160001c9050919050565b61083181610740565b811461083c57600080fd5b5056fea2646970667358221220c4f4a8512fdfc0d37b90487e1b92b527e89dae7025bc1f03c2d64e456191972c64736f6c63430008040033",
  "linkReferences": {},
  "deployedLinkReferences": {}
}