{
  "_format": "hh-sol-artifact-1",
  "contractName": "WavePortalImplementation",
  "sourceName": "contracts/WavePortalImplementation.sol",
  "abi": [
    {
      "inputs": [],
      "stateMutability": "nonpayable",
      "type": "constructor"
    },
    {
      "inputs": [
        {
          "internalType": "address",
          "name": "owner",
          "type": "address"
        },
        {
          "internalType": "address",
          "name": "caller",
          "type": "address"
        }
      ],
      "name": "onlyOwnerCanGetTotal",
      "type": "error"
    },
    {
      "anonymous": false,
      "inputs": [
        {
          "indexed": true,
          "internalType": "address",
          "name": "from",
          "type": "address"
        },
        {
          "indexed": false,
          "internalType": "uint256",
          "name": "timestamp",
          "type": "uint256"
        },
        {
          "indexed": false,
          "internalType": "string",
          "name": "message",
          "type": "string"
        }
      ],
      "name": "NewWave",
      "type": "event"
    },
    {
      "inputs": [
        {
          "internalType": "uint256",
          "name": "",
          "type": "uint256"
        }
      ],
      "name": "allCallersMap",
      "outputs": [
        {
          "internalType": "address",
          "name": "",
          "type": "address"
        }
      ],
      "stateMutability": "view",
      "type": "function"
    },
    {
      "inputs": [],
      "name": "balances",
      "outputs": [
        {
          "internalType": "uint256",
          "name": "",
          "type": "uint256"
        }
      ],
      "stateMutability": "view",
      "type": "function"
    },
    {
      "inputs": [
        {
          "internalType": "address",
          "name": "",
          "type": "address"
        }
      ],
      "name": "callersThatCalled",
      "outputs": [
        {
          "internalType": "bool",
          "name": "",
          "type": "bool"
        }
      ],
      "stateMutability": "view",
      "type": "function"
    },
    {
      "inputs": [],
      "name": "getAllCallersMap",
      "outputs": [
        {
          "internalType": "address[]",
          "name": "",
          "type": "address[]"
        }
      ],
      "stateMutability": "view",
      "type": "function"
    },
    {
      "inputs": [],
      "name": "getAllWaves",
      "outputs": [
        {
          "components": [
            {
              "internalType": "address",
              "name": "waver",
              "type": "address"
            },
            {
              "internalType": "string",
              "name": "message",
              "type": "string"
            },
            {
              "internalType": "uint256",
              "name": "timestamp",
              "type": "uint256"
            }
          ],
          "internalType": "struct WavePortalImplementation.Wave[]",
          "name": "",
          "type": "tuple[]"
        }
      ],
      "stateMutability": "view",
      "type": "function"
    },
    {
      "inputs": [],
      "name": "getOwner",
      "outputs": [
        {
          "internalType": "address",
          "name": "",
          "type": "address"
        }
      ],
      "stateMutability": "view",
      "type": "function"
    },
    {
      "inputs": [],
      "name": "getTotalWaves",
      "outputs": [
        {
          "internalType": "uint256",
          "name": "",
          "type": "uint256"
        }
      ],
      "stateMutability": "view",
      "type": "function"
    },
    {
      "inputs": [],
      "name": "getTotalWavesNonOwner",
      "outputs": [
        {
          "internalType": "uint256",
          "name": "",
          "type": "uint256"
        }
      ],
      "stateMutability": "view",
      "type": "function"
    },
    {
      "inputs": [],
      "name": "randomInt",
      "outputs": [
        {
          "internalType": "uint256",
          "name": "",
          "type": "uint256"
        }
      ],
      "stateMutability": "view",
      "type": "function"
    },
    {
      "inputs": [
        {
          "internalType": "string",
          "name": "_message",
          "type": "string"
        }
      ],
      "name": "wave",
      "outputs": [],
      "stateMutability": "nonpayable",
      "type": "function"
    },
    {
      "inputs": [
        {
          "internalType": "address",
          "name": "",
          "type": "address"
        }
      ],
      "name": "waves",
      "outputs": [
        {
          "internalType": "uint256",
          "name": "",
          "type": "uint256"
        }
      ],
      "stateMutability": "view",
      "type": "function"
    }
  ],
  "bytecode": "0x60806040523480156200001157600080fd5b5033600260006101000a81548173ffffffffffffffffffffffffffffffffffffffff021916908373ffffffffffffffffffffffffffffffffffffffff1602179055506103e84244336040516020016200006d9392919062000243565b6040516020818303038152906040528051906020012060001c6200009291906200037c565b600181905550620000e66040518060400160405280600e81526020017f72616e646f6d496e742069733a20000000000000000000000000000000000000815250600154620000ec60201b620009d11760201c565b62000401565b6200018e82826040516024016200010592919062000286565b6040516020818303038152906040527f9710a9d0000000000000000000000000000000000000000000000000000000007bffffffffffffffffffffffffffffffffffffffffffffffffffffffff19166020820180517bffffffffffffffffffffffffffffffffffffffffffffffffffffffff83818316178352505050506200019260201b60201c565b5050565b60008151905060006a636f6e736f6c652e6c6f679050602083016000808483855afa5050505050565b620001d0620001ca82620002d6565b6200034a565b82525050565b6000620001e382620002ba565b620001ef8185620002c5565b93506200020181856020860162000314565b6200020c81620003e3565b840191505092915050565b62000222816200030a565b82525050565b6200023d62000237826200030a565b62000372565b82525050565b600062000251828662000228565b60208201915062000263828562000228565b602082019150620002758284620001bb565b601482019150819050949350505050565b60006040820190508181036000830152620002a28185620001d6565b9050620002b3602083018462000217565b9392505050565b600081519050919050565b600082825260208201905092915050565b6000620002e382620002ea565b9050919050565b600073ffffffffffffffffffffffffffffffffffffffff82169050919050565b6000819050919050565b60005b838110156200033457808201518184015260208101905062000317565b8381111562000344576000848401525b50505050565b600062000357826200035e565b9050919050565b60006200036b82620003f4565b9050919050565b6000819050919050565b600062000389826200030a565b915062000396836200030a565b925082620003a957620003a8620003b4565b5b828206905092915050565b7f4e487b7100000000000000000000000000000000000000000000000000000000600052601260045260246000fd5b6000601f19601f8301169050919050565b60008160601b9050919050565b61138180620004116000396000f3fe608060405234801561001057600080fd5b50600436106100a95760003560e01c80636b726eea116100715780636b726eea146101665780637bb98a68146101965780637cdb03b1146101b4578063893d20e8146101d25780639a2cdc08146101f0578063bd43a9081461020e576100a9565b8063111f1202146100ae5780632581ccd1146100cc578063449d46c0146100fc57806358dfd35a14610118578063665ffb1f14610136575b600080fd5b6100b661022c565b6040516100c39190611009565b60405180910390f35b6100e660048036038101906100e19190610c67565b610232565b6040516100f39190611009565b60405180910390f35b61011660048036038101906101119190610c90565b61024a565b005b61012061052a565b60405161012d9190610f4a565b60405180910390f35b610150600480360381019061014b9190610c67565b610670565b60405161015d9190610f8e565b60405180910390f35b610180600480360381019061017b9190610cd1565b610690565b60405161018d9190610f06565b60405180910390f35b61019e6106c3565b6040516101ab9190611009565b60405180910390f35b6101bc61070a565b6040516101c99190611009565b60405180910390f35b6101da610755565b6040516101e79190610f06565b60405180910390f35b6101f861077f565b6040516102059190611009565b60405180910390f35b610216610880565b6040516102239190610f6c565b60405180910390f35b60015481565b60046020528060005260406000206000915090505481565b600460003373ffffffffffffffffffffffffffffffffffffffff1673ffffffffffffffffffffffffffffffffffffffff168152602001908152602001600020600081548092919061029a90611236565b9190505550600360003373ffffffffffffffffffffffffffffffffffffffff1673ffffffffffffffffffffffffffffffffffffffff16815260200190815260200160002060009054906101000a900460ff166103b5573360056000600654815260200190815260200160002060006101000a81548173ffffffffffffffffffffffffffffffffffffffff021916908373ffffffffffffffffffffffffffffffffffffffff1602179055506006600081548092919061035790611236565b91905055506001600360003373ffffffffffffffffffffffffffffffffffffffff1673ffffffffffffffffffffffffffffffffffffffff16815260200190815260200160002060006101000a81548160ff0219169083151502179055505b600760405180606001604052803373ffffffffffffffffffffffffffffffffffffffff16815260200183815260200142815250908060018154018082558091505060019003906000526020600020906003020160009091909190915060008201518160000160006101000a81548173ffffffffffffffffffffffffffffffffffffffff021916908373ffffffffffffffffffffffffffffffffffffffff1602179055506020820151816001019080519060200190610474929190610b32565b506040820151816002015550503373ffffffffffffffffffffffffffffffffffffffff167f5f7e16dc676677766a70e9c5628aa6c54ddb8b6e5188e2ae1e1f17f1ffbea71642836040516104c9929190611024565b60405180910390a26000808154809291906104e390611236565b91905055506105276040518060400160405280600d81526020017f257320686173207761766564210000000000000000000000000000000000000081525033610a6d565b50565b6060600060065467ffffffffffffffff811115610570577f4e487b7100000000000000000000000000000000000000000000000000000000600052604160045260246000fd5b60405190808252806020026020018201604052801561059e5781602001602082028036833780820191505090505b50905060005b600654811015610668576005600082815260200190815260200160002060009054906101000a900473ffffffffffffffffffffffffffffffffffffffff1682828151811061061b577f4e487b7100000000000000000000000000000000000000000000000000000000600052603260045260246000fd5b602002602001019073ffffffffffffffffffffffffffffffffffffffff16908173ffffffffffffffffffffffffffffffffffffffff1681525050808061066090611236565b9150506105a4565b508091505090565b60036020528060005260406000206000915054906101000a900460ff1681565b60056020528060005260406000206000915054906101000a900473ffffffffffffffffffffffffffffffffffffffff1681565b6000600460003373ffffffffffffffffffffffffffffffffffffffff1673ffffffffffffffffffffffffffffffffffffffff16815260200190815260200160002054905090565b600061074d6040518060400160405280601781526020017f5765206861766520256420746f74616c207761766573210000000000000000008152506000546109d1565b600054905090565b6000600260009054906101000a900473ffffffffffffffffffffffffffffffffffffffff16905090565b6000600260009054906101000a900473ffffffffffffffffffffffffffffffffffffffff1673ffffffffffffffffffffffffffffffffffffffff163373ffffffffffffffffffffffffffffffffffffffff161461083757600260009054906101000a900473ffffffffffffffffffffffffffffffffffffffff16336040517fdb0aabb300000000000000000000000000000000000000000000000000000000815260040161082e929190610f21565b60405180910390fd5b6108786040518060400160405280601781526020017f5765206861766520256420746f74616c207761766573210000000000000000008152506000546109d1565b600054905090565b60606007805480602002602001604051908101604052809291908181526020016000905b828210156109c857838290600052602060002090600302016040518060600160405290816000820160009054906101000a900473ffffffffffffffffffffffffffffffffffffffff1673ffffffffffffffffffffffffffffffffffffffff1673ffffffffffffffffffffffffffffffffffffffff16815260200160018201805461092d906111d3565b80601f0160208091040260200160405190810160405280929190818152602001828054610959906111d3565b80156109a65780601f1061097b576101008083540402835291602001916109a6565b820191906000526020600020905b81548152906001019060200180831161098957829003601f168201915b50505050508152602001600282015481525050815260200190600101906108a4565b50505050905090565b610a6982826040516024016109e7929190610fd9565b6040516020818303038152906040527f9710a9d0000000000000000000000000000000000000000000000000000000007bffffffffffffffffffffffffffffffffffffffffffffffffffffffff19166020820180517bffffffffffffffffffffffffffffffffffffffffffffffffffffffff8381831617835250505050610b09565b5050565b610b058282604051602401610a83929190610fa9565b6040516020818303038152906040527f319af333000000000000000000000000000000000000000000000000000000007bffffffffffffffffffffffffffffffffffffffffffffffffffffffff19166020820180517bffffffffffffffffffffffffffffffffffffffffffffffffffffffff8381831617835250505050610b09565b5050565b60008151905060006a636f6e736f6c652e6c6f679050602083016000808483855afa5050505050565b828054610b3e906111d3565b90600052602060002090601f016020900481019282610b605760008555610ba7565b82601f10610b7957805160ff1916838001178555610ba7565b82800160010185558215610ba7579182015b82811115610ba6578251825591602001919060010190610b8b565b5b509050610bb49190610bb8565b5090565b5b80821115610bd1576000816000905550600101610bb9565b5090565b6000610be8610be384611079565b611054565b905082815260208101848484011115610c0057600080fd5b610c0b848285611191565b509392505050565b600081359050610c228161131d565b92915050565b600082601f830112610c3957600080fd5b8135610c49848260208601610bd5565b91505092915050565b600081359050610c6181611334565b92915050565b600060208284031215610c7957600080fd5b6000610c8784828501610c13565b91505092915050565b600060208284031215610ca257600080fd5b600082013567ffffffffffffffff811115610cbc57600080fd5b610cc884828501610c28565b91505092915050565b600060208284031215610ce357600080fd5b6000610cf184828501610c52565b91505092915050565b6000610d068383610d26565b60208301905092915050565b6000610d1e8383610e98565b905092915050565b610d2f81611149565b82525050565b610d3e81611149565b82525050565b6000610d4f826110ca565b610d598185611105565b9350610d64836110aa565b8060005b83811015610d95578151610d7c8882610cfa565b9750610d87836110eb565b925050600181019050610d68565b5085935050505092915050565b6000610dad826110d5565b610db78185611116565b935083602082028501610dc9856110ba565b8060005b85811015610e055784840389528151610de68582610d12565b9450610df1836110f8565b925060208a01995050600181019050610dcd565b50829750879550505050505092915050565b610e208161115b565b82525050565b6000610e31826110e0565b610e3b8185611127565b9350610e4b8185602086016111a0565b610e548161130c565b840191505092915050565b6000610e6a826110e0565b610e748185611138565b9350610e848185602086016111a0565b610e8d8161130c565b840191505092915050565b6000606083016000830151610eb06000860182610d26565b5060208301518482036020860152610ec88282610e26565b9150506040830151610edd6040860182610ee8565b508091505092915050565b610ef181611187565b82525050565b610f0081611187565b82525050565b6000602082019050610f1b6000830184610d35565b92915050565b6000604082019050610f366000830185610d35565b610f436020830184610d35565b9392505050565b60006020820190508181036000830152610f648184610d44565b905092915050565b60006020820190508181036000830152610f868184610da2565b905092915050565b6000602082019050610fa36000830184610e17565b92915050565b60006040820190508181036000830152610fc38185610e5f565b9050610fd26020830184610d35565b9392505050565b60006040820190508181036000830152610ff38185610e5f565b90506110026020830184610ef7565b9392505050565b600060208201905061101e6000830184610ef7565b92915050565b60006040820190506110396000830185610ef7565b818103602083015261104b8184610e5f565b90509392505050565b600061105e61106f565b905061106a8282611205565b919050565b6000604051905090565b600067ffffffffffffffff821115611094576110936112dd565b5b61109d8261130c565b9050602081019050919050565b6000819050602082019050919050565b6000819050602082019050919050565b600081519050919050565b600081519050919050565b600081519050919050565b6000602082019050919050565b6000602082019050919050565b600082825260208201905092915050565b600082825260208201905092915050565b600082825260208201905092915050565b600082825260208201905092915050565b600061115482611167565b9050919050565b60008115159050919050565b600073ffffffffffffffffffffffffffffffffffffffff82169050919050565b6000819050919050565b82818337600083830152505050565b60005b838110156111be5780820151818401526020810190506111a3565b838111156111cd576000848401525b50505050565b600060028204905060018216806111eb57607f821691505b602082108114156111ff576111fe6112ae565b5b50919050565b61120e8261130c565b810181811067ffffffffffffffff8211171561122d5761122c6112dd565b5b80604052505050565b600061124182611187565b91507fffffffffffffffffffffffffffffffffffffffffffffffffffffffffffffffff8214156112745761127361127f565b5b600182019050919050565b7f4e487b7100000000000000000000000000000000000000000000000000000000600052601160045260246000fd5b7f4e487b7100000000000000000000000000000000000000000000000000000000600052602260045260246000fd5b7f4e487b7100000000000000000000000000000000000000000000000000000000600052604160045260246000fd5b6000601f19601f8301169050919050565b61132681611149565b811461133157600080fd5b50565b61133d81611187565b811461134857600080fd5b5056fea26469706673582212205effb3a5b2b644df06300965698534a359ddd4544a18552963709c9c1774388d64736f6c63430008040033",
  "linkReferences": {},
  "deployedLinkReferences": {}
}